:020000040000FA
:1000000080312228080008007E1480318B1E0928C8
:100010000A2812280B1D0D280E2812288731BC270C
:10002000803120288B1D1528162820280B1C192804
:100030001A2820288731F6278031202820282028D8
:100040007E100900803124285D3084000030850056
:1000500012308F315E278031A0308400003085005F
:1000600040308F315E2780312030840001308500A0
:1000700032308F315E278031A0308400013085001E
:1000800048308F315E2780317E1020008431C12CB2
:1000900022000D134B2809302000A9001E30A800B3
:1000A000E430890B5128A80B5128A90B51280000D6
:1000B000592822000D1709302000A9001E30A80081
:1000C000E430890B6128A80B6128A90B6128000086
:1000D0004030F1009030F2008631E0268031AE30C1
:1000E0002000A0000030A1008331E32380316400B0
:1000F000D030F1008730F2008631E0268031AE301A
:100100002000A0000030A1008331E32380311130B2
:10011000F1009030F2008631E0268031AE302000D0
:10012000A0000030A1008331E3238031AE302000F5
:10013000A0000030A1008331E3238031AE302000E5
:10014000A2000030A3006A30A4009030A5008331E3
:100150000523803120002308EA002208E9006A080C
:10016000F1006908F0005630F2009030F30083315E
:10017000A5238031700871040319BF28C028CC283A
:100180000230F0000030F1008531B32580312000CD
:10019000ED0100304D294D2964002A30F600003071
:1001A000F7002130F8009030F90086310B268031BD
:1001B0002A302000A4000030A5003430A600013011
:1001C000A7008731312780312A302000A400003079
:1001D000A5006B30A6009030A70087313127803111
:1001E0002A30F1000030F2008631E0268031AE3056
:1001F0002000A0000030A1008331E3238031AE3025
:100200002000A0000030A1008331E3238031AE3014
:100210002000A2000030A3006A30A4009030A500A6
:1002200083310523803120002308EA002208E900F9
:100230006A08F1006908F0004C30F2009030F300D9
:100240008331A523803170087104031928292929D5
:100250003C290030F1009030F2008631E0268031F8
:100260000230F0000030F1008531B32580312000EC
:10027000ED0100304D294D290330F0000030F10030
:100280008531DF2580312000ED01ED0AEC01EC0A1B
:100290002100AA01AB0101304D2908007108FD00C1
:1002A0007008FC0074087504031D572958295A2941
:1002B0001D2A1D2A7C0886007D088700720881009F
:1002C0007408FF3EF600FF30753DF70076087C07A6
:1002D000F80077087D3DF9007808860079088700E6
:1002E000720881000030750203300319740203188C
:1002F0007A297B297D291D2A1D2A7C08013EF600CA
:1003000000307D3DF7007608860077088700720888
:1003100081007C08023EF60000307D3DF700760843
:10032000860077088700720881007408FE3EF60098
:10033000FF30753DF70076087C07F80077087D3DB3
:10034000F90078088600790887007208810074082F
:10035000FD3EF600FF30753DF70076087C07F8009B
:1003600077087D3DF90078088600790887007208D3
:100370008100003075020730031974020318C12987
:10038000C229C4291D2A1D2A7C08033EF60000301C
:100390007D3DF700760886007708870072088100A7
:1003A0007408FC3EF600FF30753DF70076087C07C8
:1003B000F80077087D3DF900780886007908870005
:1003C00072088100003075020930031974020318A5
:1003D000EA29EB29ED291D2A1D2A7C09F6007D0951
:1003E000F700F60A0319F70A03307605FA00003021
:1003F0007705FB007A08FC077B08FD3D7A08F402CC
:100400007B08F53BFC30F405FF30F505162A7C0827
:1004100086007D088700720881000130F4020030F8
:10042000F53B0130FC070030FD3D162A74087504C9
:10043000031D1B2A1C2A072A1D2A0800013021003F
:10044000AC070030AD3D2C302C06031D2B2A2D03AC
:10045000031D2B2A2C2A972A0130F0000030F100CE
:100460008531B32582312100AC01AD0120006C083B
:10047000031D3B2A3C2A792A8431F324823121004E
:10048000E001E1016108803A2000DC0080305C027C
:10049000031D4D2A053021006002031C502A512AF9
:1004A000532A722A722A803148208231003A031975
:1004B0005A2A5B2A5D2A722A722A01302100E0073B
:1004C0000030E13D6108803A2000DC0080305C02B1
:1004D000031D6D2A053021006002031C702A712A59
:1004E000532A722A2100AA01AB012000EC01EC0A78
:1004F000792A6C0803197D2A7E2A842A013021007A
:10050000AA070030AB3D842A0A3021002A062B04BA
:10051000031D8B2A8C2A972A2000EC018B122100C4
:10052000171063008B1621001714972A972A0800CA
:1005300022000E149B2A52302100E7006708E300D6
:100540001F308631352682310B3085318725823147
:100550002100E7006708E8000030853187258231F7
:100560002100E7006708E8002C30853187258231BB
:100570002100E7006708E800FA30E7006708E300B9
:1005800020308631352682312100E3012130863149
:10059000352682310A302100E7006708E300223067
:1005A00086313526823196302100E7006708E30066
:1005B00023308631352682312100E3012430863113
:1005C000352682312100E301E30A253086313526C4
:1005D00082313F302100E7006708E3002730863191
:1005E0003526823140302100E7006708E3002B30D8
:1005F0008631352682310A302100E7006708E300A2
:100600002D3086313526823108002000220823044F
:10061000031D0B2B0C2B1A2B5E08A3005D08A200F8
:1006200022082304031D152B162B1A2BA201A3014C
:10063000622B622B2308F8002208F7002508FA0035
:100640002408F90084311D24833177082000A20793
:100650007808A33D22088600230887000108031DAF
:10066000322B332B392BDD01DE01A201A301622BDA
:10067000622B2308F8002208F7002508FA00240856
:10068000F900843155248331770820002207DD00EA
:100690007808233DDE005D0886005E0887000108BB
:1006A0000319532B542B5E2B5D0886005E088700D0
:1006B00081010130DD070030DE3D612BDD01DE010F
:1006C000612B622B080022008C0140308D008E01CE
:1006D000243021008C00B0308D0096308E008430A4
:1006E00023008E0030308D008C0124008D018C01A0
:1006F0008E012100951725008C018D018E01373068
:1007000026008C00F0308D00FF308E0027009910FD
:100710009810971402302100E2000030E3008F317E
:10072000582783318B1514303C00A4000230A100FF
:1007300014303D009400123091001430A5003C00AC
:10074000A00110303D0090000800AF2B0130F007F1
:100750000030F13D0130F2070030F33DAF2B72085D
:100760008400730885000008F40070088600710892
:10077000870001087406031DBE2BBF2BCA2B70080F
:100780008600710887000108031DC72BC82BA62B04
:10079000CA2BCA2B72088400730885000008F40075
:1007A000F501F409F509F40A0319F50A7008860041
:1007B0007108870001087407F00075080318750AAE
:1007C000F100E22B080020002108F1002008F000D1
:1007D0000030F200F3001430F4000030F5008131F5
:1007E0004E2183312000A401A5018F31B52783312B
:1007F0002000A2002208A600152C24082007A20031
:100800002508213DA300220886002308870026082A
:1008100081008F31B52783312000A2002208A60075
:100820000130A4070030A53D152C0A302606031D13
:100830001A2C1B2CFD2B1C2C08002000A001A10150
:100840002B2C0130F7070030F83D01302000A007C5
:100850000030A13D2B2C770886007808870001081E
:100860000319332C342C4E2C7A08F1007908F0004F
:1008700077088600780887000108FB00FC017B08E8
:10088000F2007C08F3008631C026843170087104C0
:10089000031D4B2C4C2C212C4E2C4E2C20002108BF
:1008A000F8002008F700542C08002000A001A10146
:1008B000632C0130F7070030F83D01302000A0071D
:1008C0000030A13D632C7708860078088700010876
:1008D00003196B2C6C2C862C7A08F1007908F00037
:1008E00077088600780887000108FB00FC017B0878
:1008F000F2007C08F3008631C02684317008710450
:100900000319832C842C592C862C862C200021083A
:10091000F8002008F7008C2C080000308B1B0130F9
:100920002100E4008B1355303C008F00AA308F006B
:100930000F103D001408E039143894003C002408DE
:10094000E0390538A400E0303D00A40520000E1673
:1009500055303C008F00AA308F000F142100640C2A
:10096000031C8B1303188B1705302100E3000F3095
:10097000E200F130890BBA2CE20BBA2CE30BBA2C53
:1009800008008731E32784318B132100171464009A
:100990008231982284318F31A427843184318D248F
:1009A000843105302100EA000F30E900F130890B75
:1009B000D72CE90BD72CEA0BD72C03302100E2000F
:1009C0000030E30085315625843103302100E200F8
:1009D0000030E3008531252584318B176400EE2C2F
:1009E000EE2C8031222800308B1B0130F2008B135B
:1009F00055303C008F00AA308F000F103D001408C6
:100A0000E039143894003C002408E0390538A4008B
:100A1000E0303D00A40520000E1655303C008F004C
:100A2000AA308F000F14720C031C8B1303188B1742
:100A30000530F1000F30F000F130890B1D2DF00B67
:100A40001D2DF10B1D2D00000800472D22000E1753
:100A5000292D04302100E5000C30E4003330890BEF
:100A60002F2DE40B2F2DE50B2F2D0032372D2200DB
:100A70000E1304302100E5000C30E4003330890B04
:100A80003F2DE40B3F2DE50B3F2D0032472DFF306E
:100A90002100E207FF30E33D620A031D532D630A84
:100AA000031D532D542D262D552D0800782D220081
:100AB0008E155A2D04302100E5000C30E40033304F
:100AC000890B602DE40B602DE50B602D0032682D45
:100AD00022008E1104302100E5000C30E400333098
:100AE000890B702DE40B702DE50B702D0032782DE5
:100AF000FF302100E207FF30E33D620A031D842D31
:100B0000630A031D842D852D572D862D0800210095
:100B1000E50022000E108C2D0B308F31DA27853145
:100B2000210065088F31DA27853124001512003045
:100B30008F31DA2785312100E3006308E600A02D1C
:100B400022000E14A32D05302100E4000F30E30035
:100B5000F130890BA92DE30BA92DE40BA92D210060
:100B60006608B22D0800D12D22000E17B72D0430D3
:100B7000F3000C30F2003430890BBC2DF20BBC2D8D
:100B8000F30BBC2DC32D22000E130430F3000C30E8
:100B9000F2003430890BCA2DF20BCA2DF30BCA2D8B
:100BA000D12DFF30F007FF30F13D700A031DDC2D21
:100BB000710A031DDC2DDD2DB42DDE2D0800FD2D69
:100BC00022008E15E32D0430F3000C30F200343097
:100BD000890BE82DF20BE82DF30BE82DEF2D220009
:100BE0008E110430F3000C30F2003430890BF62DF6
:100BF000F20BF62DF30BF62DFD2DFF30F007FF3035
:100C0000F13D700A031D082E710A031D082E092EDE
:100C1000E02D0A2E080079082000A1007808A00025
:100C20007708A3007608A200162E162E2308FB00D4
:100C30002208FA00A20A0319A30A7A0886007B0890
:100C400087002108FD002008FC00A00A0319A10A62
:100C50007C0884007D0885000008C03F8908031DCA
:100C6000322E332E162E342E08002100E6002200EC
:100C70000E103A2E0A308F31DA27863121006608AD
:100C80008F31DA278631210063088F31DA278631E8
:100C9000492E22000E144C2E05302100E5000F30A5
:100CA000E400F130890B522EE40B522EE50B522E4C
:100CB00008007108F5007008F400632E0130F00799
:100CC0000030F13D632E700886007108870001082E
:100CD000031D6B2E6C2E5E2E6D2E7409F2007509AD
:100CE000F300F20A0319F30A70087207F0007108A2
:100CF000733DF1007B2E08002434503455344234C7
:100D000058342C34343431342C3431342C343034A1
:100D10003034303437342C343034303430343334AD
:100D20002C34353437343634303430342C34303499
:100D30002A34323442340D340A3400346D34613490
:100D40006334203474347834203475346E3463342E
:100D50006E3466342034393420343134373432340C
:100D6000303436344534423431343034373430342E
:100D7000433430343134453439340D340A3400349A
:100D8000700884007108850000087206031DC92ED2
:100D9000CA2ECB2EDF2E7108F5007008F400F00A81
:100DA0000319F10A74088400750885001200031DF8
:100DB000DA2EDB2EC02EDC2EF001F101DF2E080032
:100DC000F401F501F22E7108740784007208753D74
:100DD000850000088F31882786310130F407003004
:100DE000F53DF22E7108740784007208753D850088
:100DF0001200031DFC2EFD2EE32EFE2E08002434CF
:100E000050345534423458342C34343430342C3447
:100E100047344C344C342C3431342C3430342C346E
:100E200030342C3430342C3430340D340A34003423
:100E3000243450345534423458342C34343430341F
:100E40002C3447344C344C342C3431342C3431343D
:100E50002C3430342C3430342C3430340D340A34C7
:100E6000003420002508F1002408F00086315926BE
:100E70008731700820002407F6007108253DF7002F
:100E80002708F9002608F80086310B268731482FFD
:100E90000800243450345534423458342C3434341B
:100EA00030342C344734473441342C3430342C34EF
:100EB00030342C3430342C3430340D340A34003493
:100EC000243450345534423458342C34343430348F
:100ED0002C344734533441342C3430342C343034B3
:100EE0002C3430342C3430340D340A34003424346F
:100EF00050345534423458342C34343430342C3457
:100F000052344D3443342C3430342C3430342C347B
:100F100030342C3430340D340A340034243450341A
:100F20005534423458342C34343430342C34563420
:100F3000543447342C3430342C3430342C34303462
:100F40002C3430340D340A340034243450345534C5
:100F5000423458342C34343430342C344734533401
:100F600056342C3430342C3430342C3430342C344B
:100F700030340D340A3400340B1120006B08950016
:100F80005F0860040319C52FC62FCC2F60088A00A4
:100F90005F080A008731CC2F82311E22873108007A
:100FA0006D346134633420347334653474342034E4
:100FB00070347734723469346434783420343134A2
:100FC0000D340A3400348331632387318F31952700
:100FD00087318F31542787318F31642787318F31A3
:100FE000ED2787318F317C27873108002700991C36
:100FF000FA2FFB2FFF2F8F31C7278731FF2F0800D4
:101EA8001C3021009700080021006308EC0062083C
:101EB800EB000800640080010131890B5F2F0034BA
:101EC800403024009400323095009201080003301D
:101ED800F0000030F1008531DF258F310800210046
:101EE80063082000E000210062082000DF000800ED
:101EF800083023009F0090309D0024309E00403021
:101F08009B0003309C000800F0008B2F6400200029
:101F1800111E8F2F902F8A2F912F700823009A005F
:101F280008007030210099009A019801220096015A
:101F38009D2F21001A1FA12FA22F9D2FA32F08002C
:101F48008A3023009B009C0105302100E3000F30FC
:101F5800E200F130890BAE2FE20BAE2FE30BAE2F70
:101F68000800B72F64002000911EBB2FBC2FB62F8E
:101F780023009D1CC02FC12FC42F1D121D16C42F56
:101F88001908C62F08008F316B278F3121006B0885
:101F98006C040319D02FD12FD72F6C088A006B0837
:101FA8000A008F31D72F2700991008002100E2007E
:101FB800240095132100620824009100E42F640096
:101FC8002400141CE82FE92FE32FEA2F1108EC2F27
:101FD800080021001508C039173895002000950120
:101FE800EB010B118B1603302100E2000030E300F7
:101FF8008F3173278F310800733465346E3464343D
:102008002034643461347434613420346634613487
:1020180069346C346534643400346D346134633449
:1020280020346A346F3469346E3420346F34743435
:10203800613461340D340A3400346D3461346334EE
:10204800203474347834203475346E3463346E3408
:10205800663420343934203400344734503453340F
:102068002034643461347434613420347334653416
:102078006E3474340A34003473347934733420344D
:10208800723465347334653474340D340A3400346E
:102098006D34613463345F34743478345F346F344E
:1020A8006B340034613463346334653470347434AD
:1020B80065346434003424344734503447344C3461
:1020C8004C340034303430343034003420340D345F
:1020D8000A34003420342C34003425345834003485
:0820E8002E3400344E340034A4
:020000040001F9
:04000E00ECFFFFFF05
:00000001FF
